:100000000C9435000C945D000C945D000C945D0024
:100010000C945D000C945D000C945D000C945D00EC
:100020000C945D000C945D000C945D000C945D00DC
:100030000C945D000C945D000C945D000C945D00CC
:100040000C942D030C945D000C94FB020C94D502CF
:100050000C945D000C945D000C945D000C945D00AC
:100060000C945D000C945D00A30411241FBECFEF1F
:10007000D8E0DEBFCDBF11E0A0E0B1E0E6E7FEE0F2
:1000800002C005900D92AA36B107D9F722E0AAE680
:10009000B1E001C01D92A031B207E1F710E0C5E365
:1000A000D0E004C02197FE010E942E07C433D1077F
:1000B000C9F70E9477030C9439070C940000CF9283
:1000C000DF92EF92FF920F931F93CF93DF936C0118
:1000D0007A018B01C0E0D0E0CE15DF0589F0D801B0
:1000E0006D918D01D601ED91FC910190F081E02D93
:1000F000C6010995892B11F47E0102C02196ECCF2F
:10010000C701DF91CF911F910F91FF90EF90DF908A
:10011000CF900895089580E090E00895FC01538DFC
:10012000448D252F30E0842F90E0821B930B5417D1
:1001300010F0CF96089501970895FC01918D828D5E
:10014000981761F0828DDF01A80FB11D5D968C912B
:10015000928D9F5F9F73928F90E008958FEF9FEF36
:100160000895FC01918D828D981731F0828DE80FF2
:10017000F11D858D90E008958FEF9FEF0895FC01AC
:10018000918D228D892F90E0805C9F4F821B910979
:100190008F739927089583E791E00E94BF0021E0C3
:1001A000892B09F420E0822F0895FC01848DDF0162
:1001B000A80FB11DA35ABF4F2C91848D90E00196DA
:1001C0008F739927848FA689B7892C93A089B189C9
:1001D0008C9180648C93938D848D981306C00288D3
:1001E000F389E02D80818F7D80830895EF92FF92C7
:1001F0000F931F93CF93DF93EC0181E0888F9B8D4A
:100200008C8D981305C0E889F989808185FD24C00B
:10021000F62E0B8D10E00F5F1F4F0F731127E02E8E
:100220008C8DE8120CC00FB607FCFACFE889F9896B
:10023000808185FFF5CFCE010E94D500F1CF8B8D57
:10024000FE01E80FF11DE35AFF4FF0820B8FEA89A0
:10025000FB898081806207C0EE89FF896083E8891D
:10026000F98980818064808381E090E0DF91CF9183
:100270001F910F91FF90EF900895CF93DF93EC01C2
:10028000888D8823C9F0EA89FB89808185FD05C0B6
:10029000A889B9898C9186FD0FC00FB607FCF5CFF0
:1002A000808185FFF2CFA889B9898C9185FFEDCF38
:1002B000CE010E94D500E7CFDF91CF91089580E075
:1002C00090E0892B29F00E94CB0081110C94000052
:1002D00008953FB7F89480916B0190916C01A091C3
:1002E0006D01B0916E0126B5A89B05C02F3F19F096
:1002F0000196A11DB11D3FBFBA2FA92F982F8827A6
:10030000820F911DA11DB11DBC01CD0142E0660F00
:10031000771F881F991F4A95D1F70895009769F0B4
:10032000FC0101900020E9F73197AF01481B590B00
:10033000BC0183E791E00C945F0080E090E00895B9
:10034000CF93DF930E948E01EC0182E191E00E9445
:100350008E018C0F9D1FDF91CF9108958F929F92F8
:10036000AF92BF920F931F93CF93DF93CDB7DEB7BA
:10037000A1970FB6F894DEBF0FBECDBF19A24230D1
:1003800008F44AE08E010F5D1F4F842E912CA12CA2
:10039000B12CA50194010E940C07E62FB901CA01F6
:1003A00001501109EA3014F4E05D01C0E95CD801A4
:1003B000EC93232B242B252B61F7C8010E948E017F
:1003C000A1960FB6F894DEBF0FBECDBFDF91CF91DF
:1003D0001F910F91BF90AF909F908F9008954F9273
:1003E0005F926F927F928F929F92AF92BF92CF92C5
:1003F000DF92EF92FF926B017C01B42E9B01AC0166
:100400000E940707882319F085E191E027C02601A3
:100410003701E89477F82FEF3FEF4FE75FE7C3012D
:10042000B2010E94070781110DC02FEF3FEF4FE788
:100430005FE7C301B2010E943D0518161CF489E173
:1004400091E00CC02FEF3FEF4FE75FE4C701B6012B
:100450000E949506181684F48DE191E0FF90EF90CC
:10046000DF90CF90BF90AF909F908F907F906F90D4
:100470005F904F900C948E012FEF3FEF4FE75FECB2
:10048000C701B6010E943D0587FDE6CF20E030E0C0
:10049000A901C701B6010E943D0587FF11C0E09187
:1004A0007301F09174010190F081E02D6DE283E71A
:1004B00091E009954C01F7FAF094F7F8F09402C036
:1004C000812C912CA12C60E070E080E09FE3AB14C4
:1004D00041F020E030E040E251E40E944205A39464
:1004E000F6CF9B01AC01C701B6010E94D1042B01DC
:1004F0003C010E94B4056B017C010E94E3059B0155
:10050000AC01C301B2010E94D0042B013C014AE0BE
:10051000C701B6010E94AE017C01E80CF91CBB20AA
:1005200069F0E0917301F09174010190F081E02D88
:100530006EE283E791E00995E80EF91EDB2CDD20E1
:1005400021F120E030E040E251E4C301B2010E9419
:100550009A062B013C010E94B4054B01A12CB12C41
:100560004AE0C501B4010E94AE01E80EF91EC501C2
:10057000B4010E94E3059B01AC01C301B2010E94DA
:10058000D0042B013C01DA94DACFC701FF90EF9041
:10059000DF90CF90BF90AF909F908F907F906F90A3
:1005A0005F904F9008950E9434071F920F920FB6EC
:1005B0000F9211242F933F934F935F936F937F93E9
:1005C0008F939F93AF93BF93EF93FF9383E791E054
:1005D0000E94D500FF91EF91BF91AF919F918F91B4
:1005E0007F916F915F914F913F912F910F900FBE2F
:1005F0000F901F9018951F920F920FB60F92112413
:100600002F938F939F93EF93FF93E0918301F0914A
:1006100084018081E0918901F0918A0182FD12C0FC
:10062000908180918C018F5F8F7320918D01821753
:1006300051F0E0918C01F0E0ED58FE4F958F8093E2
:100640008C0101C08081FF91EF919F918F912F913B
:100650000F900FBE0F901F9018951F920F920FB61C
:100660000F9211242F933F938F939F93AF93BF9338
:1006700080916F0190917001A0917101B091720110
:1006800030916A0123E0230F2D3720F40196A11D3C
:10069000B11D05C026E8230F0296A11DB11D2093B0
:1006A0006A0180936F0190937001A0937101B093E0
:1006B000720180916B0190916C01A0916D01B091DC
:1006C0006E010196A11DB11D80936B0190936C0189
:1006D000A0936D01B0936E01BF91AF919F918F91E7
:1006E0003F912F910F900FBE0F901F901895789407
:1006F00084B5826084BD84B5816084BD85B5826027
:1007000085BD85B5816085BD80916E0081608093D7
:100710006E00109281008091810082608093810040
:100720008091810081608093810080918000816050
:10073000809380008091B10084608093B1008091AB
:10074000B00081608093B00080917A0084608093D3
:100750007A0080917A00826080937A0080917A009A
:10076000816080937A0080917A00806880937A001B
:100770001092C100E0918301F091840182E08083B6
:10078000E0917F01F09180011082E0918101F09170
:1007900082018FEC808310928B01E0918701F091B0
:1007A000880186E08083E0918501F0918601808157
:1007B00080618083E0918501F0918601808188606D
:1007C0008083E0918501F09186018081806880833B
:1007D000E0918501F091860180818F7D808381E2A7
:1007E00091E00E94A0018CE291E00E94A00186E3CA
:1007F00091E00E94A00188E591E00E94A001C0E480
:1008000083E691E00E948E012FB7F89460916F010A
:100810007091700180917101909172012FBF0E94BF
:10082000E3052FE632E143E85AE30E949A060E946C
:10083000B4056B017C01C0937C0080917A008064D8
:1008400080937A0080917A0086FDFCCF80917800B9
:100850002091790090E0922BBC01990F880B990BA5
:100860000E94E50520E030E040EA50E40E949A064C
:1008700020E030E040E85AE30E949A0620E030E0B1
:1008800040E05FE30E94D00420E030E048EC52E416
:100890000E949A064B015C014AE0C701B6010E9422
:1008A000AE0187E691E00E948E0142E0C501B401ED
:1008B0000E94EF0187E691E00E948E0120E030E087
:1008C00040E151E4C501B4010E949A0620E030E005
:1008D00040EA50E40E94420520E030E040E052E46B
:1008E0000E94D10442E00E94EF0182E191E00E9467
:1008F0008E010E9469014B015C0188EEC82E83E0E5
:10090000D82EE12CF12C0E946901DC01CB01881961
:100910009909AA09BB09883E9340A105B10558F081
:1009200021E0C21AD108E108F10888EE880E83E0C0
:10093000981EA11CB11CC114D104E104F10419F7E3
:100940000E945F015DCFE3E7F1E01382128288EE3F
:1009500093E0A0E0B0E084839583A683B78384E02E
:1009600091E09183808385EC90E09587848784EC87
:1009700090E09787868780EC90E0918B808B81EC6C
:1009800090E0938B828B82EC90E0958B848B86EC4D
:1009900090E0978B868B118E128E138E148E089595
:1009A0005058BB27AA270E94E8040C945B060E94BB
:1009B0004D0638F00E94540620F039F49F3F19F498
:1009C00026F40C944A060EF4E095E7FB0C944406DA
:1009D000E92F0E946C0658F3BA1762077307840761
:1009E000950720F079F4A6F50C948E060EF4E095A8
:1009F0000B2EBA2FA02D0B01B90190010C01CA01D9
:100A0000A0011124FF27591B99F0593F50F4503E83
:100A100068F11A16F040A22F232F342F4427585F75
:100A2000F3CF469537952795A795F0405395C9F78D
:100A30007EF41F16BA0B620B730B840BBAF0915045
:100A4000A1F0FF0FBB1F661F771F881FC2F70EC0E4
:100A5000BA0F621F731F841F48F4879577956795B7
:100A6000B795F7959E3F08F0B0CF9395880F08F0A3
:100A70009927EE0F9795879508950E94200608F410
:100A800081E008950E9456050C945B060E9454066E
:100A900058F00E944D0640F029F45F3F29F00C9475
:100AA000440651110C948F060C944A060E946C0661
:100AB00068F39923B1F3552391F3951B550BBB278D
:100AC000AA2762177307840738F09F5F5F4F220FD2
:100AD000331F441FAA1FA9F335D00E2E3AF0E0E8C9
:100AE00032D091505040E695001CCAF72BD0FE2F13
:100AF00029D0660F771F881FBB1F261737074807A7
:100B0000AB07B0E809F0BB0B802DBF01FF2793585E
:100B10005F4F3AF09E3F510578F00C9444060C94D8
:100B20008F065F3FE4F3983ED4F3869577956795FB
:100B3000B795F7959F5FC9F7880F911D9695879593
:100B400097F90895E1E0660F771F881FBB1F6217B2
:100B500073078407BA0720F0621B730B840BBA0B70
:100B6000EE1F88F7E09508950E94740688F09F575D
:100B700098F0B92F9927B751B0F0E1F0660F771FC1
:100B8000881F991F1AF0BA95C9F714C0B13091F0B7
:100B90000E948E06B1E008950C948E06672F782F80
:100BA0008827B85F39F0B93FCCF38695779567957C
:100BB000B395D9F73EF490958095709561957F4FE8
:100BC0008F4F9F4F0895E89409C097FB3EF490958E
:100BD0008095709561957F4F8F4F9F4F9923A9F016
:100BE000F92F96E9BB279395F695879577956795A5
:100BF000B795F111F8CFFAF4BB0F11F460FF1BC0E9
:100C00006F5F7F4F8F4F9F4F16C0882311F096E97B
:100C100011C0772321F09EE8872F762F05C0662329
:100C200071F096E8862F70E060E02AF09A95660FE2
:100C3000771F881FDAF7880F9695879597F908959B
:100C4000990F0008550FAA0BE0E8FEEF16161706DD
:100C5000E807F907C0F012161306E407F50798F045
:100C6000621B730B840B950B39F40A2661F0232B5E
:100C7000242B252B21F408950A2609F4A140A695DA
:100C80008FEF811D811D089597F99F6780E870E0BF
:100C900060E008959FEF80EC089500240A941616F2
:100CA000170618060906089500240A94121613065A
:100CB000140605060895092E0394000C11F48823E8
:100CC00052F0BB0F40F4BF2B11F460FF04C06F5F04
:100CD0007F4F8F4F9F4F089557FD9058440F551FDA
:100CE00059F05F3F71F04795880F97FB991F61F0AE
:100CF0009F3F79F087950895121613061406551F25
:100D0000F2CF4695F1DF08C0161617061806991F90
:100D1000F1CF86957105610508940895E894BB2785
:100D200066277727CB0197F908950E94200608F4DB
:100D30008FEF08950E94AD060C945B060E944D064D
:100D400038F00E94540620F0952311F00C944406CC
:100D50000C944A0611240C948F060E946C0670F3C2
:100D6000959FC1F3950F50E0551F629FF001729F50
:100D7000BB27F00DB11D639FAA27F00DB11DAA1F5F
:100D8000649F6627B00DA11D661F829F2227B00DAC
:100D9000A11D621F739FB00DA11D621F839FA00D37
:100DA000611D221F749F3327A00D611D231F849F87
:100DB000600D211D822F762F6A2F11249F575040DE
:100DC0009AF0F1F088234AF0EE0FFF1FBB1F661F59
:100DD000771F881F91505040A9F79E3F510580F022
:100DE0000C9444060C948F065F3FE4F3983ED4F3D2
:100DF000869577956795B795F795E7959F5FC1F7C6
:100E0000FE2B880F911D9695879597F908950E945E
:100E10002006880B990B0895A1E21A2EAA1BBB1B72
:100E2000FD010DC0AA1FBB1FEE1FFF1FA217B307B6
:100E3000E407F50720F0A21BB30BE40BF50B661FCC
:100E4000771F881F991F1A9469F760957095809590
:100E500090959B01AC01BD01CF010895EE0FFF1FDE
:100E60000590F491E02D099481E090E0F8940C94C1
:060E70003907F894FFCFE2
:100E760000000000F6005F008E003D01BF009D00EF
:100E8600B1000D0A006E616E00696E66006F7666CF
:100E960000434C454152534845455400434C454157
:100EA6005244415441004C4142454C2C2054696DFA
:100EB60065456C6170707365642C2054656D704374
:100EC6002C2054656D704600524553455454494D87
:0A0ED600455200444154412C000035
:107E0000112484B714BE81FFF0D085E080938100F7
:107E100082E08093C00088E18093C10086E0809377
:107E2000C20080E18093C4008EE0C9D0259A86E02C
:107E300020E33CEF91E0309385002093840096BBD3
:107E4000B09BFECF1D9AA8958150A9F7CC24DD24C4
:107E500088248394B5E0AB2EA1E19A2EF3E0BF2EE7
:107E6000A2D0813461F49FD0082FAFD0023811F036
:107E7000013811F484E001C083E08DD089C08234E0
:107E800011F484E103C0853419F485E0A6D080C0E4
:107E9000853579F488D0E82EFF2485D0082F10E0AE
:107EA000102F00270E291F29000F111F8ED06801E7
:107EB0006FC0863521F484E090D080E0DECF843638
:107EC00009F040C070D06FD0082F6DD080E0C81688
:107ED00080E7D80618F4F601B7BEE895C0E0D1E017
:107EE00062D089930C17E1F7F0E0CF16F0E7DF06D8
:107EF00018F0F601B7BEE89568D007B600FCFDCFD4
:107F0000A601A0E0B1E02C9130E011968C91119780
:107F100090E0982F8827822B932B1296FA010C0160
:107F200087BEE89511244E5F5F4FF1E0A038BF0790
:107F300051F7F601A7BEE89507B600FCFDCF97BE46
:107F4000E89526C08437B1F42ED02DD0F82E2BD052
:107F50003CD0F601EF2C8F010F5F1F4F84911BD097
:107F6000EA94F801C1F70894C11CD11CFA94CF0C13
:107F7000D11C0EC0853739F428D08EE10CD085E9AC
:107F80000AD08FE07ACF813511F488E018D01DD067
:107F900080E101D065CF982F8091C00085FFFCCF94
:107FA0009093C60008958091C00087FFFCCF809118
:107FB000C00084FD01C0A8958091C6000895E0E648
:107FC000F0E098E1908380830895EDDF803219F02E
:107FD00088E0F5DFFFCF84E1DECF1F93182FE3DFCA
:107FE0001150E9F7F2DF1F91089580E0E8DFEE27F6
:047FF000FF270994CA
:027FFE00040479
:0400000300007E007B
:00000001FF
